:020000040000FA
:10000000D83F0020E520000069620000D1200000F8
:10001000D1200000D1200000D1200000D12000001C
:100020000000000000000000000000008921000026
:10003000D120000000000000D1200000D1200000ED
:10004000F9220000F9220000F9220000F922000044
:10005000F9220000F9220000F9220000F922000034
:10006000F9220000F9220000F9220000F922000024
:10007000F9220000F9220000F9220000F922000014
:10008000F9220000F9220000F9220000F922000004
:10009000F9220000F9220000F9220000F9220000F4
:1000A000F9220000F9220000F9220000F9220000E4
:1000B000F9220000F9220000F9220000F9220000D4
:1000C000F9220000F9220000F9220000F9220000C4
:1000D000F9220000F9220000F9220000F9220000B4
:1000E000F9220000F9220000F9220000F9220000A4
:1000F000F9220000F9220000F9220000F922000094
:10010000F9220000F9220000F9220000F922000083
:10011000F9220000F9220000F9220000F922000073
:10012000F9220000F9220000F9220000F922000063
:10013000F9220000F9220000F9220000F922000053
:10014000F922000053B94AB9002908BF00281CBF92
:100150004FF0FF314FF0FF3000F00CB8ADF1080C5C
:100160006DE904CE00F008F8DDF804E0DDE90223D3
:1001700004B07047704700BF2DE9F04786468C46B3
:100180000846089E154674461946002B40F0C1806B
:100190008542B2FA82F245D94AB1C2F1200300FA8F
:1001A00002FC954094402EFA03F343EA0C0C4FEA0C
:1001B000154EA8B2230CBCFBFEF80EFB18CC08FBB6
:1001C00000F943EA0C43994528D9EB1808F1FF37A9
:1001D00004D2994502D9A8F102072B44A3EB0903E5
:1001E000A4B2B3FBFEFC0EFB1C330CFB00F044EA94
:1001F0000344A04214D92C190CF1FF3304D2A042BD
:1002000002D9ACF102032C44241A43EA07401EB180
:10021000D440002334607360BDE8F0874746DDE7D3
:100220006346F1E792BB431B01214FEA154EAFB283
:10023000200CB3FBFEFC0EFB1C330CFB07F840EA62
:100240000343984561D9EB180CF1FF3004D298456F
:1002500002D9ACF102002B44A3EB0803A4B2B3FB18
:10026000FEFC0EFB1C330CFB07F744EA0344A742D9
:100270004DD92C190CF1FF3304D2A74202D9ACF1AD
:1002800002032C44E41B43EA0040C0E7C2F1200310
:100290009540944020FA03F12EFA03F34FEA154EED
:1002A0009040AFB20343B1FBFEFC0EFB1C10190CD7
:1002B0000CFB07F841EA0041884522D969180CF186
:1002C000FF3004D2884502D9ACF102002944A1EBE9
:1002D00008019BB2B1FBFEFC0EFB1C110CFB07F7E7
:1002E00043EA01439F420ED9EB180CF1FF3104D2CF
:1002F0009F4202D9ACF102012B44DB1B41EA0041D1
:1003000093E76046E3E76146F7E76046A4E76346A4
:10031000B8E7834206D916B9002108467CE7C6E94A
:1003200000E0F9E7B3FA83F78FB9834201D372454E
:1003300008D8BEEB020460EB030301209C461EB903
:10034000002169E73846FAE7C6E9004CF8E7C7F14B
:10035000200CBB400EFA07F522FA0CF42EFA0CF131
:10036000BA401C4320FA0CF3B8404FEA1449014349
:100370001FFA84FEB3FBF9F809FB18300B0C08FBDD
:100380000EFA43EA00439A4540D9E31808F1FF30DA
:1003900004D29A4502D9A8F102002344A3EB0A0330
:1003A00089B2B3FBF9F809FB183308FB0EFE41EAEA
:1003B00003418E452CD9611808F1FF3304D28E45D4
:1003C00002D9A8F10203214443EA0040A1EB0E0147
:1003D000A0FB02984145CE46434602D306D14D4587
:1003E00004D20138B9EB020E68EB0403002EA7D04B
:1003F000B5EB0E0261EB030101FA0CFC22FA07F3E4
:10040000F9404CEA0303C6E9003199E74046C5E7E5
:100410004346D9E730B5394B394A4921C3F800265C
:100420003848C3F8042687B0C3F80826C3F80C265A
:10043000C3F81026C3F81426C3F81826C3F81C26E0
:1004400005F063FE05F006FA00F0E4FA054603A89D
:1004500000F082FD0446284600F0ECFA2A4B1B68A7
:10046000A34205D04521294805F04FFE05F050FB79
:100470004921059A264805F048FE039925484B7DF9
:100480000A7DC98A0091492105F03FFE4921224891
:1004900005F03BFE4FF48031002002F01BFE0446C5
:1004A00020B145211D4805F030FEFEE702A99DF868
:1004B000100000F039F8029A059B194D1344039A75
:1004C000128913442B6002F0EDFD01F09DF801F05C
:1004D0006DF801F087F82B681B6883F3088884F3B4
:1004E0001488BFF36F8FBFF36F8F2B685B689847DB
:1004F00045210C4805F009FEFEE700BF00800150D1
:100500003546526E3E72000008000020577200000F
:100510007A720000A9720000C7720000EC7200003D
:10052000400100201F730000024608B538B105489D
:100530000023452105F0E9FD6FF0150008BD0860B6
:10054000FCE700BF4273000021B1012906D06FF023
:1005500015007047044B53F830007047024B03EB13
:10056000C0035868704700BFD86E00002DE9F04FF7
:100570009B468B4BDBB01546DDE965891E68074657
:100580000C4600F0DDFF0122864B3AA8C3F8002597
:1005900004F07CF8B8F1000F07D0B9F1000F04DDCA
:1005A0004A4641463AA805F09FFC4FF000082389CF
:1005B0006289D4F80CA013449A44C2455FD80DA9AF
:1005C0003AA804F0D5F80022764BC3F80025C3F80A
:1005D0000025679B23B1202218460DA905F085FE52
:1005E00000232A46009321464FF6FF7307A805F023
:1005F00032F98046002853D1294638460C9C05F034
:1006000047FAA0424CD34FF0FF34DFF8A4B1DFF833
:1006100094A10DF1160305AA06A907A805F069F92A
:1006200000283DDB40F0B280069907A805F0ADF93F
:1006300050B94FF6FF71BDF816005B4A32F8023B25
:100640008B422DD09842F9D1BDF81670102F31D0C1
:10065000222F78D0012FDCD1BDF81430202B1FD8E9
:10066000284606993AAA05F06BFD0446C0B99DF8E4
:100670001430202B02933CD94FF0FF34C9E7649B20
:10068000AAEB0809994528BF99465A464B46414668
:10069000284605F055FD30B10022424BC3F8002535
:1006A0003F4B1E6875E04A4659463AA805F01CFCC7
:1006B000C84482E7BDF81470202FF1D13B4628468C
:1006C00006993AAA05F03CFD0028E9D100F0A2F90C
:1006D0003A4680463AA90DA800F0F6F8074640468B
:1006E00000F0A8F9DBF80030BB42D9D14FF0010887
:1006F0008FE72E4ADFF8BC9013680393039B9C425C
:10070000BADA00F01DFFCAF800751DA803F0BEFF9D
:10071000D9F804201DA8126859F8081B05F0E4FB5D
:1007200015A91DA804F024F80022CAF80025CAF86B
:100730000025029A3AA915A805F0C7FD00283FF444
:1007400068AF0134DAE7631C3FF463AF174B1B68F3
:100750009C4291DABDF81430802BA1D82846069926
:100760003AAA05F0EDFC00289AD100F053F9E4B262
:1007700007462021BDF814303AAA00940DA800F0D5
:100780001BF80646384600F055F975E7B8F1000F3A
:1007900086D000F047F930465BB0BDE8F08F00BF6F
:1007A000040000200000845010720000E06E000081
:1007B00008000020E46E00002DE9F04796B01746CF
:1007C0001E469DF878203B4B814653F8321003EBD0
:1007D000C2035B6801911868DFF8E88001443023A8
:1007E00002AA01A8D8F8005005F00CFB002858D147
:1007F000DDE901431C44214606AB03AA01A805F02C
:1008000029FB00284DD1049A072A4AD12A49059884
:1008100005F05BFD002844D1079A082A41D12749F9
:10082000089805F052FD00283BD1214602AA01A8F4
:1008300005F0FCFAA8BBDDE901A30AEB0302944230
:100840002FD1412B2DD13E443023314603AA02A89B
:10085000029705F0D7FA1A4DE0B9DDE902321344E8
:100860009E4217D3324602A906A805F09CF888B923
:10087000324602A90EA805F096F858B99AF8003049
:10088000042B07D12023484606AA0AF1010100F0F3
:100890006FFE60B1D8F800302D68AB4218BFD8F8B1
:1008A000005000F0BFF8284616B0BDE8F0872B686E
:1008B000F2E700BFE46E000071730000687300008F
:1008C000080000200400002070B5094B04461D6894
:1008D0000023934205D1074B1D6800F0A3F828467A
:1008E00070BDE65CC85C8642F7D10133F1E700BF1A
:1008F0000400002008000020094A40000B7852F84C
:1009000020108B4209D0013052F82000834214BFDE
:100910004FF0FF304FF4C07070474FF4C070704715
:10092000EC6E00001FB5582303FB0100046A10237E
:10093000A1686A462046103905F002FC034640B122
:1009400022784521064805F0E0FB0024204604B04B
:1009500010BD10226846034905F0B7FCF6E700BF5A
:10096000797300002E7200002DE9F3471E4683685C
:1009700005468B420C46174643D95B1A934240D337
:1009800086B36A4604F04BFF00283CDB013FDDF8EC
:1009900000803C441D4FDFF878906A462146284687
:1009A00004F03DFF00282EDBDDE9004A28465246D0
:1009B000214605F0EFFB002825DBC7F80096C7F8B5
:1009C0000496C7F80896C7F80C96C7F81096C7F8AB
:1009D0001496C7F81896C7F81C966EB1444512D9FC
:1009E000013CDAE7511E21446A4604F018FF002852
:1009F00009DBDDF80080CDE75444A04503D3013482
:100A0000CBE74FF0FF3002B0BDE8F0870080015027
:100A10003546526E024B1868421C1A60704700BF80
:100A200044010020024A1368013B1360704700BF75
:100A300044010020034B1B68834201D005F068B8D5
:100A4000704700BF4401002073B50D4600210446E5
:100A50002846CDE9001105F0AEF828B323681A4EF8
:100A6000B34203D1204601AA05F014F8E36AB34269
:100A700004D16A460121204605F00CF8DDE9003278
:100A8000934288BF0193019BAB60019A294620469F
:100A900000F060FC0D4B1A68002A03DD57210C485A
:100AA00005F033FB02B070BD01462046FFF73AFF68
:100AB000064605F1080104F0CEFFAB68304601930D
:100AC00005F03DFBE1E700BF3DB8F396A80D00201F
:100AD000A57300002DE9FF472C2606FB0106D6F87A
:100AE00020A00446504617460D4605F06FFB731EC6
:100AF000F21C13F8011F814226D19A42F9D1B5B1F7
:100B00005146204605F09AF8FB79042B0AD120467D
:100B1000216A05F093F8024648B949212B4805F0AF
:100B2000F4FA04E0002002F069FB0428EFD0284B1F
:100B30001C68FFF777FF204604B0BDE8F087254B1F
:100B40001C6835E0244A3EE02C236B43E118086919
:100B5000C206D4D4E258214B9A42F0D1CA680B891C
:100B60009B18ECD24A89D218E9D2DAF808309A42B6
:100B7000E5D240F60C670740E1D1FFF74BFF804616
:100B8000FFF748FF4FF48073814652463146009389
:100B90002046134BCDE902770197FFF7E7FC0446A7
:100BA0004846FFF747FFFFF73DFF4046FFF742FF8C
:100BB0000C4B1B68A342BCD0002DC3D00121504672
:100BC00005F037F8084A45210848A8E7E673000011
:100BD0000000002004000020D47300003DB8F3960C
:100BE000D40E002008000020DC73000025740000F3
:100BF0002DE9F84F884691469A460026DFF870B0F6
:100C0000194C1A4D0B9B9E4201D300200FE00B9B09
:100C100040469F1BB7F5806F28BF4FF48067144A8A
:100C20003B4606EB0A0105F08BFA10B10120BDE846
:100C3000F88F0A993B465A464846711805F095FACE
:100C40000028F3D1C4F800563E44C4F80456C4F852
:100C50000856C4F80C56C4F81056C4F81456C4F814
:100C60001856C4F81C56CDE7008001503546526E28
:100C7000480100202DE9F0410E460021AD4B04460D
:100C8000436203F5806388B003650846FFF75CFCA8
:100C900004F120010546C0B201F086F848B10023F6
:100CA0002A46452101900093A34805F02EFA04F04E
:100CB0002FFF01210020FFF747FC04F14C010546FE
:100CC000C0B201F071F850B101232A4645210190CC
:100CD00000939948002305F018FA04F019FF204604
:100CE00004F03FFF054668B900222046114604F093
:100CF00022FF054600B300225721904805F005FA6F
:100D00000123A0E0802257218D4805F0FEF9012340
:100D10009D4284F85830E7D194F85830042B8DF870
:100D2000173000F29380012B00F2978000F0AA8028
:100D3000FF2384F85830A5E0204600F019FA002877
:100D4000DED004A804F02EFF0146204604F0AAFFDE
:100D500018B12A4657217B48D0E704A804F02BFF9E
:100D600080F0010104AA2046C9B204F0E4FE024664
:100D70000028C0D104A804F01EFF054660BB204631
:100D800004A9FFF761FE9DF8173084F85830033B43
:100D9000012B06D8284600F00FF910B1FF2384F884
:100DA00058309DF81730023B022B0BD8002000F082
:100DB000EDF838B1FF2384F858304521624805F03A
:100DC000A4F9FEE794F85830FF2BF6D00022204615
:100DD000114604F0B0FE93E79DF81770012F1FD164
:100DE000104602F00BFA831E022B054615D8FFF7BA
:100DF00011FE3946804604AA2046FFF76BFE0746DF
:100E00004046FFF717FE514B1B689F4205D0504BE1
:100E10001D68AF4214BF0525012584F858507BE7B3
:100E2000FFF7F8FD0121074604AA2046FFF752FE0E
:100E300005463846FFF7FEFD444B1B689D4214BF34
:100E400005239DF8173084F8583065E7052B7FF4AB
:100E50006FAF002000F0B0F811E0204604A9FFF7C2
:100E6000F3FD94F85830DA1E012A34D8002000F03F
:100E7000A3F800287FF45CAF002000F087F800287A
:100E80007FF456AF94F85830FF2B05D145212E48FA
:100E900005F03BF904F03CFE002294F858302D4F49
:100EA000012B03921AD01146204604F044FEA8B14B
:100EB0003D68102200210DEB020005F021FAE06CE4
:100EC00005F03DF9206A05F03AF9FFF7ABFD284639
:100ED00008B0BDE8F081022BD4D1CDE7FFF79AFD31
:100EE0000022804611462046FFF7F4FD05464046A5
:100EF000FFF7A0FDDFF85480D8F800309D42D7D12D
:100F00003B689D42D4D0124B1B689D42D0D0039BBE
:100F100001330393039B012B01D004F0F9FD206AF8
:100F200004F07BFC3071236A5B683460D8F80050B1
:100F3000B360BEE7480500204D740000DC7400007B
:100F40009A74000008750000327500000800002047
:100F5000000000200400002070B50B4E0446602203
:100F60000021304605F0CCF9FFF754FD2146054637
:100F70003046FFF77FFE04462846FFF75BFDFFF78C
:100F800051FD204670BD00BF480D002013B5094B30
:100F900001A913F8300000F007FF48B9019805F0E7
:100FA00069FC0446019805F0CAF8204602B010BD5D
:100FB0000124FAE7F46E00001FB50F4B01A913F8E6
:100FC000300000F0F1FEA8B9019802A902F0C0F8C3
:100FD000044668B99DF80B30032B03D1019805F046
:100FE00017FC0446019805F0AAF8204604B010BD8D
:100FF0000124F7E70124F8E7F46E00002DE9F3413E
:1010000006460C4617461D460BB9002121E018463E
:1010100004F0D1FD01460028F7D13046FFF782FCED
:1010200018B9012002B0BDE8F08101A904F013FD58
:101030000028F6D10199304604F065FE736A5968BC
:101040006B79012B18D1002CDFD12B68834298BF1C
:1010500000212C2303FB04663A462023306A05F066
:101060006FF80028DDD1002DDCD038680D4BC01A98
:1010700018BF4FF0FF30D5E7022BC6D12B68012BEC
:1010800005D98342C1D8B4FA84F46409BDE7BCD160
:10109000002CDED0012CB8D12C79023C18BF0124E1
:1010A000B3E700BF3DB8F3962DE9F04F07460C4675
:1010B00085B0014600201646FFF71EFC051E50DBDA
:1010C0003846E46D04F0BCFC5FFA84F94FF0000A86
:1010D0004FF0010B4FF0FF346B1E09FB03089DB965
:1010E000BAF1010F03DD4521204805F00EF8631C1D
:1010F00006D07F2C2ADC40F2011301343460B38027
:10110000284605B0BDE8F08F6B1E009341460123D1
:1011100038460DF10F0205F013F8031E019322DB90
:10112000012238460DF10F0105F00DFB019B40B186
:101130005B4501D00AF1010A9B46009DA8EB090816
:10114000CDE7B4F1FF3F08BF2C46F5E70223803C12
:101150007371631004F0010401330134336034719E
:10116000CEE70725CCE70125CAE700BF3E750000A2
:10117000F8B5866A456D0446AE4208D06B1CB34292
:1011800005D05721164804F0C0FF0020F8BD802E7E
:1011900019D957211348F6E7626A02EBC302576870
:1011A000226D02EBC3025268BA4202D057210E48A8
:1011B000E9E701339D42EFD1204604F0B0FE28B9A3
:1011C00057210A48DFE700231F46F3E7AE4205D95F
:1011D000636A03EBC5035B68BB42E7D10120D5E737
:1011E0006175000099750000C8750000F475000075
:1011F00010B588B0044604A9006A01F0A9FF9DF863
:101200001020012A40D0254B2549032A08BF0B4650
:101210009DF81320492102929DF812202148019245
:101220009DF811200092204A04F06FFFE06C06A99F
:1012300001F08EFF9DF81820012A27D0174B18497E
:10124000032A08BF0B469DF81B20492102929DF8F6
:101250001A20144801929DF819200092134A04F0B4
:1012600054FF9DF81030012B12D19DF81230032B42
:101270000ED19DF81830012B0AD00D48492104F0F9
:1012800044FF022008B010BD0A4BC1E7094BDAE762
:101290000948492104F039FF0020F3E72D760000CA
:1012A000367600004A7600003C7600008B7600001F
:1012B0009B76000031760000BA76000070B54B686E
:1012C00014461E4A03F0FF23934206460D4686B09D
:1012D0002FD10B68012B2CD1204604A901F038FF37
:1012E0009DF81020012A26D0154B1649032A08BF65
:1012F0000B469DF81320492102929DF812201248B6
:1013000001929DF811200092104A04F0FEFE9DF813
:101310001030032B0DD12146304604F08FFC2046BF
:1013200005F076FA2046A96804F0A3FB204601F0F8
:10133000EFFE06B070BD064BDBE700BF0001000406
:101340002D760000367600004A7600008B7600008D
:10135000317600002DE9F04F1646054687B00C4661
:101360006E48492104F0D1FE3146284604F0CBFCFA
:101370006B6A824620465E6804F01DFCE8B1E86DA9
:1013800004F03DFB0023AF6A013F3344984201D98A
:10139000013FFAE7BA4510D35721614804F0B5FE82
:1013A00007FB06F357210AFB06625E4804F0ADFE18
:1013B0000123E37107B0BDE8F08FEB6C21461A46BC
:1013C000284603932F6AFFF779FF6379012B4AD1EF
:1013D000D046DFF854B141E02268C2F10103534422
:1013E000984539D86B6A012A196853F8380003EB1D
:1013F000C80353F8083CA0EB0109A3EB01030493D5
:101400000FD1E368022B08D03946284604F016FCB9
:1014100022463946284604F026FC2846039904F063
:101420000DFC0023324649463846FFF79DFA049BDF
:101430003A4639462846CDE90096FFF7D9FB2146C2
:10144000284604F0C5FB23680133236020B1DBF894
:1014500000300133CBF8003008F1FF38B8F1000F4D
:10146000BAD10123236002234FF001086371C24502
:10147000A0D3236898454ED36A6A4FEAC80352F84E
:101480003810083BD2F800B00491D1582A6DD058DA
:101490001368A0EB03092379012B3AD1A1EB0B01CF
:1014A0000023324638460591FFF75EFA05994B4610
:1014B0003A460091284603990196FFF799FB214689
:1014C000284604F085FB0223237118B1164A1368DD
:1014D000013313600023324649460398FFF744FA6C
:1014E000049B3946A3EB0B03039A2846CDE90096EB
:1014F000FFF77EFB2146284604F06AFB2368013390
:1015000023600123237130B1074A1368013313604C
:1015100001E0022BDED008F10108A8E7D176000037
:10152000FA76000029770000A80D00200A4619B1BC
:10153000024B00211B681847704700BF0C000020B9
:1015400070B5094D2B780BB1002070BD0126074CFA
:10155000C4F8006503F03CF918B92E70C4F8000512
:10156000F2E74FF0FF30F0E7D40F00200000845086
:101570002DE9F041ACB01F4606460C461546FFF774
:10158000DFFF0123DFF820802A46C8F80035214616
:101590003346009703A805F0C0FA0023C8F80035C9
:1015A0002CB0BDE8F08100BF00008450BFF36F8F06
:1015B00072B600234FF0FF30094A03F120010133D6
:1015C000102B42F82100F8D100234FF0FF30044ADD
:1015D00003F160010133102B42F82100F8D170476C
:1015E00000E100E0002318460649D1F89020C2F33C
:1015F0000722934200DB7047C1F89830C1F8A00081
:101600000133F6E700ED00E04FF0FF3301212DE953
:10161000F04300253A4A3B4E51603B4FC2F84833F5
:10162000DFF8EC80C2F8083302F58052516085B0D3
:10163000C2F84833C2F808334FF0FF3956F8044B6C
:1016400044F30730C4F8089300F0BEFD0123636043
:1016500000236846C4F84C31D4F84C21C4F810314A
:10166000D4F81021C4F84431D4F84421C4F800352A
:10167000D4F80C250092D4F814250192D4F808254A
:101680000292D4F81025C4F80C950392C4F814956E
:10169000C4F80895C4F8109550F8041B4A1C0DD0E6
:1016A00001F01F02490926D107EB8202D2F800128D
:1016B00001EA080141F00201C2F800120133042BD3
:1016C000EAD180220021A01804F01AFE8022002115
:1016D00004F5C07004F014FE5DB14FF0FF330B4A07
:1016E000C2F808354FF05022C2F8083305B0BDE803
:1016F000F0830125A0E70023803253F82230FFDE7B
:1017000000400150006F000000258450007001501F
:10171000F0F8FCFF014B1B68184700BF10000020C9
:10172000014B1860704700BF1000002007B50B4642
:10173000002102460091034800F006F803B05DF86E
:1017400004FB00BF151700002DE9F04F82464FF053
:1017500000098DB01D46531E01910393039B5878D9
:101760005C1C252819D100204FF0FF381E46444646
:1017700003460236029031780396392955D81F293D
:1017800014D8002900F0EF8101992520D047019954
:101790003078D04709F10209E0E7002800F0E38142
:1017A0000199D04709F101090394D7E7A1F120027B
:1017B000192AE9D801A757F822F000BF2518000020
:1017C00089170000891700002518000089170000FC
:1017D000A51800008917000089170000891700006C
:1017E00089170000F1180000251800008917000073
:1017F00005190000B118000089170000BF1800008B
:10180000DF180000DF180000DF180000DF180000FC
:10181000DF180000DF180000DF180000DF180000EC
:10182000DF18000008460136A5E7582900F0EB80D4
:10183000A1F16302D7B2172FA6D8172AA4D801A7FF
:1018400057F822F0AD1A00002B190000891700008C
:1018500089170000891700000B1900002B190000E0
:1018600089170000891700000B1900008917000074
:101870008917000089170000E1190000891700008E
:1018800089170000811A0000891700002B19000039
:101890008917000089170000E1190000891700006E
:1018A0000B19000025200199D04709F1010955E7DE
:1018B000029A4FF0000802F0FE020292B3E7002CF9
:1018C0000DDAB8F1000F0DDA029A002A00F0438118
:1018D0000A2224EAE47402FB0414303CA3E7B8F1C2
:1018E000000FF5DB0A2202FB0812A2F130089AE78A
:1018F000B8F1000F55F8042B80F22F81002A80F2F6
:101900002E815442022202928DE7682903D1682B6E
:1019100006D1482387E76C2902D16C2B00F0218186
:10192000002B7FF431AF0B467DE77A2B06D175296A
:1019300055F8046B14D14FF0000B0CE06C2BF6D073
:101940004C2BF4D1073525F00703752903F1080561
:10195000D3E9006B06D120283BD1854F013C09E03B
:101960004FEAE67BBBF1000FF5DA7642814F6BEB75
:101970004B0B013C0DF12D030593002304933046DE
:1019800059460A220023FEF7DDFB059BB4463032A0
:1019900003F8012D5A460593049BBCF10A0F8B46B0
:1019A00072F1000203F1FF3106460491E7D2C3F160
:1019B000010B30330DEB0306B8F1000FA6F104065E
:1019C0006DDA029BD9077DD4A8EB0B03A4EB0B04C3
:1019D00013E02B280ABF684F684F04F1FF34C9E7B2
:1019E00070290FD155F8042B0023FAB96FF00403C6
:1019F0004FF0050B614F624E053C029A920770D47E
:101A0000A04666E078216C2B03D1002355F8042B07
:101A100008E04C2BF9D1073525F007031D465B681C
:101A200055F8082B232825D1880621D5554F023C8F
:101A3000002601F06001A1F1390B0DF12D0E02F02D
:101A40000F01092988BF594430310EF8011D102AB1
:101A50004FEA121141EA03714FEA131C73F10003BC
:101A600006F1FF3008D2C6F1010B06F13003A1E701
:101A7000454FDCE7414FDBE706460A466346DEE7B3
:101A800055F8046B304604F019FCB8F1000F83469A
:101A900002DB4045A8BFC3464FF00008374FA8EB14
:101AA0000B03002B92DDA4EB0804A6E755F8043BDA
:101AB0004FF0010B8DF81830304F4FF0FF33013CE1
:101AC00006AE9AE7A046EAE7029320200199D047A4
:101AD000029BB8F10108F7D524EAE472013C914475
:101AE000A41AB84606E0049302920199D047029ADC
:101AF000049B9046424612F8010B0028F3D11A4687
:101B0000013A15D5002BACBFC7EB03077F425B46FC
:101B1000013B15D5BBF1000FA8BF5F4426464F44DB
:101B2000013E14D5002CA8BF3F1907EB080915E6A4
:101B30000493029230200199D047049B029ADFE778
:101B40000293019916F8010BD047029BE0E7019937
:101B50002020D047E4E70122D5E6904663E614460C
:101B600061E64C235FE648460DB0BDE8F08F00BF4C
:101B7000B7770000B5770000B9770000A4730000C4
:101B8000C1770000BB770000BE7700002DE9F04769
:101B9000058B04462807904611D4022905F0070555
:101BA00040F0CC80204604F0D7F978B10138218B81
:101BB000042811D8DFE800F0C2106D8595000129D6
:101BC0000CBF45F0100545F02005258388F31188EA
:101BD000BFF36F8FBDE8F08701F0070AAA4500F058
:101BE000A5800027B9463E46A368002B00F0BC80C4
:101BF00041F00801218388F31188BFF36F8FA1683A
:101C0000002900F0BA800D68002900F0B680334644
:101C100052462046D1F80480C047002D76D02B686C
:101C200029461D46F0E701F007035A1F012A1BD879
:101C3000002221F00701062B276889B2C4E900229F
:101C400009D13B4603E0628B013262831B68002BA3
:101C5000F9D141F002012046218304F07DF90028EA
:101C60007AD041F0200176E0042B0AD121F007015F
:101C700089B22046218304F06FF910B141F02001B0
:101C80002183218B01F0070AAA454FD00027B946CE
:101C9000AAE7236921F0070141F00601062DD3F8D8
:101CA000009021832DD1B9F1000F3FD041F0080100
:101CB000218388F31188BFF36F8F20463949C847C5
:101CC00029E021F00701236941F0040189B2042DC4
:101CD000D3F804902183E6D000274FF0040A3E4653
:101CE00082E721F00701236941F0050189B2052D42
:101CF000D3F808902183D6D000274FF0050A3E463E
:101D000072E700274FF0060A3E466DE72B4687E74D
:101D1000B9F1000FD1D1EFF31188202383F312889A
:101D2000BFF36F8F238B23F008032383258BEA06F1
:101D30002ED525F01003238305F007056669218B56
:101D4000002EBFF670AF00232768C4E9003321F0EE
:101D5000070141F001012183218B4FF0000901F0BF
:101D6000070AAA457FF440AF002F9CD041F008013C
:101D7000218388F31188BFF36F8F002FC8D03D688F
:101D8000394633465246204604F012F92F46F4E70E
:101D9000AB067FF51BAF25F02003238305F0070575
:101DA00000E700BFDD5F000070B5104B0D461C68FA
:101DB000B4B10F4B196800238B4202DB6FF00100B6
:101DC00070BD224612F8106B864202D014460133D1
:101DD000F2E7E06804F044FE28B100202C60EFE751
:101DE0006FF00C00ECE76FF01200E9E71400002040
:101DF000086F000010B5436888B0029383680C46F2
:101E0000CDE9033200230A68C068CDE906230549FD
:101E100001AA059304F032FB079808B9059B2360DB
:101E200008B010BDDB61000008B5054804F087F874
:101E3000044804F084F8BDE80840034804F07FB883
:101E4000C7770000F87700002B780000014802F007
:101E50006FB900BFEC6F000030BFFFF7FDBF00BFE0
:101E6000154B9A6A12F0007F9A6A14BF1E201D203B
:101E700012F0807F9A6A18BF1F2012F4801F9A6A9E
:101E800018BF202012F4002F9A6A18BF212012F4E4
:101E9000802F9A6A18BF222012F4003F9A6A18BF56
:101EA000232012F4803F9A6A18BF24206FEA02426E
:101EB0006FEA12429A62704700ED00E010B5194BCC
:101EC0000246986A9C6A10F4805F14BF172016209F
:101ED00014F4006F9C6A18BF1820A40509D5986BEC
:101EE000986A000404D51AB19A6A22F400429A62F0
:101EF00019200C4B9A6A12F4806F9A6A18BF1A2044
:101F0000D2050CD49B6A13F4005F18BF1C20054A4D
:101F1000936A43F47F43936200230B7010BD1B2030
:101F2000F5E700BF00ED00E010B51C4B0246986AD3
:101F30009C6A10F0100F14BF1120102014F0080F2D
:101F40009C6A18BF1220A40709D5586B986A00062E
:101F500004D51AB19A6A22F080029A6213200F4BBC
:101F60009A6A12F0010F9A6A18BF142012F0200F1B
:101F70009A6A18BF1520D40658BF9B6A074B9A6A05
:101F8000920642BF5A6A22F400525A629A6A42F09A
:101F9000FF029A6200230B7010BD00BF00ED00E04D
:101FA00070B5444B06465B6800258AB0C3F308034E
:101FB00085F31188BFF36F8F02F07F40B0F17F4F40
:101FC00011D102F00C0008280DD010074CBF0E46AE
:101FD00001250022033B8DF80720032B05D8DFE8FD
:101FE00003F01E5C60592E46F3E700249DF807308D
:101FF0009BB92022314602A804F077F9099B002DF5
:1020000053D0C3F3080222B96FEA53236FEA432384
:102010000993204602A904F01DF90AB070BD254BB2
:10202000DA6A9107E1D4DA6A002ADEDBDA6A520062
:10203000DBD55A69B16942F480725A61BFF34F8FA0
:10204000BFF36F8F5A6931F8021C22F480725A6113
:10205000BFF34F8FBFF36F8F4DF60272914209D0DD
:102060009A6AD2B242B101200DF10701FFF75CFF7D
:102070000446BBE73468B9E79A6A12F47F4F05D08B
:1020800001200DF10701FFF719FFF1E79B6AB3F596
:10209000803FAAD3FFF7E4FEEAE700200DF1070135
:1020A000E4E700200DF10701EDE723F4FF7323F0CF
:1020B0000103ADE700ED00E0044B5A6942F0100265
:1020C0005A615A6922F008025A61704700ED00E037
:1020D000EFF30880EFF3098101B57246FFF760FF67
:1020E00001BD00BF002080F31488BFF36F8F002074
:1020F00080F30A8880F30B880F4880F3088801F08A
:102100003BF900200D490860BFF34F8F00F01AF82B
:10211000202080F311880A484FF40061401880F3B2
:102120000988EFF314800221084380F31488BFF379
:102130006F8F00F08FF80000D83F002094ED00E092
:10214000D80F002072B6002383F313884FF0FF30BE
:102150000C4A03F120010133102B42F82100F8D181
:1021600000234FF0FF30074A03F160010133102BC9
:1021700042F82100F8D162B6BFF34F8FBFF36F8FE3
:10218000704700BF00E100E01EF0040F0CBFEFF34A
:102190000880EFF30980816911F8021C0229FFD041
:1021A00001B5724604F05CF801BD00BF40B20028E2
:1021B00007DB01234109034A00F01F00834042F876
:1021C0002130704700E100E040B200280CDB012222
:1021D0000649430900F01F008240203341F82320C4
:1021E000BFF34F8FBFF36F8F704700BF00E100E078
:1021F000054B420953F82220012300F01F0003FA87
:1022000000F01040704700BF00E100E040B200283D
:1022100001F10101ACBF00F16040064B4FEA4111F2
:10222000C9B2ABBF00F5614000F00F0080F80013A9
:102230001954704714ED00E0044B054A23F07F0366
:102240009360BFF34F8FBFF36F8F704700000000A4
:1022500000ED00E008B5FFF7EFFF104BD3F8882042
:1022600022F47002C3F88820D3F8882042F4A00238
:10227000C3F888204FF04042C3F83422BFF34F8F99
:10228000BFF36F8F0023E1EE103A01F033FE01F04F
:1022900071FE00F025F801F039FE00BF00ED00E00E
:1022A000154606460C46002280B5E1EE102A064F80
:1022B00087F30988002005498847204629461A46A1
:1022C000B04703488047FEE7D83F00208162000006
:1022D0008F6200001022014B1A61704700ED00E090
:1022E000002320210348C2180133412B82F8001338
:1022F000F9D1704700E100E008B5EFF30583064A25
:10230000103B02EBC30152F8330049688847BDE82F
:10231000084003F0B0BF00BF446C0000014B1860E0
:10232000704700BF180000200122024B0020C3F8B4
:10233000402570470090035020B1034B800143F0CB
:1023400001031847704700BFD06E0000084B70B5FE
:10235000C31A0D4607499B100446594340220648BC
:1023600003F0E3FF2B4601462046BDE870401847C6
:10237000C00D0020B76DDBB6C46B0000402373B501
:102380000B4C0093041B0B460D460A49A4106143F5
:102390000646094A094803F0F3FF011E05DA3046F4
:1023A0002B4602B0BDE87040184702B070BD00BFB8
:1023B000C00D0020B76DDBB6EF630000C46B0000FA
:1023C00010B5EFF31184202383F31288BFF36F8FCE
:1023D000074A136823F00201DB07116002D40120D1
:1023E00004F0D2FA84F31188BFF36F8F10BD00BFE1
:1023F000100E002070B50022012104460520FFF7D1
:1024000005FF0F4801F0E8F80E4B984215D101F096
:10241000F3F826690C49304603F0EEFD00280BDB8B
:10242000012535642469084904F11C0003F0E4FD2A
:10243000002801DB0020E56470BD6FF00400FBE7BD
:10244000152500000000AD0BF46F00000C22104BAE
:10245000014602FB0033002030B4D3E90E529863EA
:10246000EFF31180202484F31288BFF36F8F1C6C6C
:1024700004F0C00444F002041C6480F31188BFF32C
:102480006F8F1DB12B4630BC0248184730BC7047D7
:10249000C00D0020C46B000010B4EFF311822023A4
:1024A00083F31288BFF36F8F1848016841F002046C
:1024B0000460C80708D482F31188BFF36F8F01202E
:1024C0005DF8044B01F0ACB84FF05021D1F80C048A
:1024D000D1F80C14C907EED5EFF3118083F31288FD
:1024E000BFF36F8F0A490B6C03F0C00343F0020384
:1024F0000B6480F31188BFF36F8F82F31188BFF3F1
:102500006F8F00205DF8044BFFF7A0BF100E002076
:10251000C00D002010B1012804D07047034B1B6C84
:102520005B0701D1FFF792BF704700BFC00D0020CD
:102530002DE9F843012207463449D1E8EF3FC1E8CD
:10254000E02F0028F9D133B9314932484B60CB60D4
:102550008A6003F064FD7B1E012B2DD8012F07D16B
:102560004FF05023D3F81C3403F00303022B23D085
:1025700004F0B6FA054608BB274B1B78F3B14FF0C1
:10258000502302220646C3F808234FF050244FF090
:102590000008DFF88890D4F81824D4F81834D2034F
:1025A00015D503F00303022B01D0012F0FD135B352
:1025B00086F31188BFF36F8FBDE8F883EFF31186C0
:1025C000202383F31288BFF36F8F0125DDE73046A8
:1025D00003F065FED4F81835DBB2012BDBD1D4F85B
:1025E0000421002AD7D0C4F80481D4F8042102229F
:1025F000C4F818252022C9F88021A360CBE74FF04A
:1026000050230222C3F80423D6E700BFBC0D0020EC
:10261000AC0D0020DC0D0020D70F002000E100E011
:1026200008B5074804F01CFA38B10648FFF776FEF3
:102630000448FFF775F8002008BD6FF01200FBE7B3
:10264000046C0000492600000A2838B50446074DEE
:1026500004D1AB680D2128465B689847AB680348F6
:102660005B68E1B29847204638BD00BF046C0000AB
:10267000024B0B6001231360704700BF140E002053
:10268000004870471870000010B504F0E1F9034CE1
:10269000206004F0DAF96060002010BD140E002004
:1026A000F8B50E461946304617461D4603F01BFF87
:1026B000B8B145EA060414F0030412D14DB12B1948
:1026C000032BA6EB040006D8074AD2F80034DB0738
:1026D000FBD50020F8BD3B1B196801F0CBFB043C87
:1026E000EDE76FF01500F5E700900350430970B572
:1026F00007D10B4B596821B101250C68094E854063
:1027000001B970BD8A682A4002D030464B689847AC
:102710001CB1236821461C46F2E72346FAE700BFB6
:102720001C0E0020E46B00002DE9F04340F206355A
:102730004668D00648BF0320337B02EA050558BF30
:10274000C2F3401087B001F01F07B5F5837F144630
:1027500047EA43178DF8030041D00FD8062D18D053
:1027600007D8B5B1022D3CD06FF0150007B0BDE819
:10277000F083B5F5807FF7D101250AE040F202220F
:10278000954230D0B5F5407F2FD0B5F5007FEBD125
:10279000022522032BD5012372688B409360326996
:1027A00062BB07F01F037F0975D13D4A84F4803175
:1027B00002EB8302D2F80032C1F30041C4F340447B
:1027C00023F4E16344EA410423F007031C4344EA91
:1027D000800444EA0524C2F800420020C6E7072529
:1027E000D7E70425D5E70525D3E70325D1E763031C
:1027F00041BF012372688B40D360D0E71036394661
:1028000030460DF1020201F0C3F914F4403F804656
:102810000CD13946304604F011F9224B9845DCD1F1
:1028200030469DF8021001F0F3F9D6E74FF00009A9
:1028300001AB3946304603AACDE90439CDE9019907
:10284000CDF80C9001F072F8164B98428CD114F42C
:10285000003315D09DF8033084F48034C4F3004471
:102860008DF80E3039464B46304603AA8DF80C5091
:102870008DF80D4001F00EF90A4B9842CDD073E768
:10288000CDE9043339460DF10303304603AA03931F
:1028900001F04CF8F0E7803352F82330FFDE00BF40
:1028A000002584500000AD0B38B545682B69B3B1E5
:1028B0001035284601F0A2F9044680B901462846A1
:1028C00001F078F9084B98420BD122462846074977
:1028D00001F058F9224605210D20FFF797FC002052
:1028E00038BD6FF00400FBE70000AD0BED260000E3
:1028F000F0B51646426801F01F04107B87B044EA29
:102900004014106900286DD0B6F5001F02F11005C3
:1029100006D12146284604F093F8002007B0F0BD08
:102920000027B6F5800F01A80197476037D1B3F1B2
:10293000007F14BF052304238DF804300023CDE964
:102940000403039393680DF1030723FA01F111F0D7
:10295000010139D1B6F1A07F36D104F01F0362091D
:1029600003F1800344D1244A52F82330DB072BD4EF
:102970003A462146284601F00BF9204B984219D0DF
:1029800002972146284603AA00F0D0FF1C4B98422C
:102990002BD101222146284601F04AF9BDE7B3F1C7
:1029A000C06F05D0B3F1007F14BF01230223C3E73A
:1029B0000323C1E73946284601F032F9104B98420B
:1029C000DED06FF00B00A9E73A462146284601F019
:1029D000DFF80B4B9842D4D128469DF8031001F044
:1029E00017F9CEE76FF0850098E76FF0150095E7CF
:1029F00051F82330FFDE00BF002584500400AD0BEA
:102A00000000AD0B2DE9F04F002640F2FF17DFF874
:102A1000E0C0DFF8D8E0DFF8DC80F3B2994202D8FA
:102A20000020BDE8F08F50F8265015F4804FC5F314
:102A3000C324C5F308034AD12D0EBB4208BF4FF093
:102A4000FF331CF80440032D44D8DFE805F00208EA
:102A50003033C2F80C355D1C2FD10136DDE7C2F8EA
:102A600014355D1CF9D04FF0000A50F826B00BF475
:102A70000045002D16BF4FF0000AD1464FF0010966
:102A800003F01F055B092BD10EEB8505D5F800324D
:102A9000CBF3412B240244EA8B0403EA08032343CB
:102AA00043EA0A0343EA4903C5F80032D5E7C2F80E
:102AB0000835D0E7C2F81035D3E75D090DD14FF0E6
:102AC000010A0A4D0AFA03F9C5F80890CDE76FF03C
:102AD0001500A6E76FF08500A3E700239B60FFDEEB
:102AE0000023803553F82530F9E700BF00258450D6
:102AF00093780000F0F8FCFF2DE9F04104460D4604
:102B0000476803F0EDFF4FF0200868B9244B1B78AD
:102B100053B16426606803F0ABFDD0B9012003F027
:102B2000D3FE013EF6D1F4E7EFF31186314688F388
:102B30001288BFF36F8F606803F09AFDA8B986F31F
:102B40001188BFF36F8FEFE786F31188BFF36F8FA4
:102B5000DFE7EFF31186314688F31288BFF36F8FFA
:102B6000606803F085FD0028EED0BB6900201D7071
:102B70006368BA691B68C3F844250122C3F8482575
:102B8000C3F82001D3F82041C3F85801D3F8580105
:102B90009A6081F31188BFF36F8FBDE8F08100BFA9
:102BA000D70F0020F8B50546002201210820FFF7C5
:102BB0002DFB0820FFF7FAFA6C680121E06803F0AA
:102BC00088FD6B681A682369C2F82435617D237D0E
:102BD0000B43A17D0B43C2F86C356E68D6E9004308
:102BE00013F0010342D02F6907F1080000F0EEFC5A
:102BF0002D4B984254D1387A04F10C0204F59071AF
:102C000003F064FE387A012707FA00F000F0D8FCE0
:102C10000823C4F80035B369C4F844350023C4F868
:102C20004835A760D4F85831002BFBD00026C4F8F3
:102C300000656B683146D86803F04BFD6D6831461E
:102C4000E8682C6803F045FD0823C4F800352A7AAB
:102C500052B9EB69C4F834350123C4F83835C4F8E7
:102C60001021D4F8102123600020F8BD0822C4F8F8
:102C70000025B269C4F84425C4F848350123A3608F
:102C8000D4F82031002BFBD00023C4F82031D4F835
:102C900020310123E3604FF48073C4F80433C1E7AB
:102CA0006FF00400E1E700BF0000AD0B012383409B
:102CB00070B5DC430B4AD2E8EF1F01EA0405C2E815
:102CC000E65F002EF7D14FF4803282400648C0F80C
:102CD0000823BFF35F8FBFF36F8F0B4214BF012038
:102CE000002070BD380E00200050015070B40E4915
:102CF00022F07F46D1E90034D01AC31844F1000411
:102D0000C1E90034A6F50013B3F5400F09D2074B13
:102D10001B681A0A1B069C19054B42F10005C3E902
:102D2000004570BC01F066B9B80000203C0E0020E0
:102D3000C0000020D9B101230D4A8340D2E8EFCF73
:102D40004CEA030CC2E8E1CF0029F7D14FF48033FD
:102D5000084A8340C2F80433074BD3E8AF3FC3406F
:102D6000DB0742BF4FF40012044BC3F80021704749
:102D7000380E002000500150340E002000E100E029
:102D80000D4B1868010A0006BFF35F8F0B4BD3F899
:102D90000435181841F10001B3F5801F0AD2084B21
:102DA000D3E90023904271EB030303D210F180704A
:102DB00041F10001704700BF3C0E0020005001505F
:102DC000C00000202DE9F04F85B016461F4604468E
:102DD0009DF840A0FFF76AFF0190FFF7D1FFB042D6
:102DE00071EB070352D23B4B301A67EB010198425B
:102DF00071F100014DD2384B03EB0413D3E90223E8
:102E00009F4208BF964258D04FF48038334908FAA1
:102E100004F8204626F07F4BC1F8488303F068FC95
:102E20004FF00309584604F15005AD00ADB205F16D
:102E3000502504F5A87305F580350293029A20F019
:102E40007F4341F82230C1F84483D1F80435244A45
:102E5000C01A033820F07F4090422ED9286868B10C
:102E6000D1F80435A3EB0B0020F07F40B0F5000F44
:102E7000039322D9204603F03BFC039BBAF1000FD9
:102E800007D109EB030009F10109D7E7BAF1000FF7
:102E900009D06FF0150520460199FFF74BFF284632
:102EA00005B0BDE8F08F01230E4AA340D2E8EF0F32
:102EB0001843C2E8E10F0029F8D107490E98230111
:102EC000C8500F9B01EB04120025C2E90267536052
:102ED000E1E700BF01008000A80000200050015081
:102EE000FDFF7F00340E00207FB500254FF0FF303E
:102EF0004FF0FF31194C1A4B0226C4F80833C4F8BE
:102F00004833184BC4F80855C3E902014FF4803325
:102F10004FF40012C4F80433134B0121C4F80463C6
:102F20001520C3F880212A46FFF770F91520FFF716
:102F30003DF901230D4AA360236013600C4B0D4A39
:102F4000009328460023CDE90155FFF73BFF3046AB
:102F5000FFF7EEFA284604B070BD00BF00500150E4
:102F600003000F00A800002000E100E0380E002060
:102F7000ED2C0000FFFF7F002DE9F7432E4BD3F827
:102F8000042390070BD5D3F8042142B10022C3F8E3
:102F900004212A4AD3F80431136801331360264A06
:102FA000D2F80433D90326D5254BD3E8EF1F21F0FF
:102FB0000100C3E8E40F002CF7D1CB0702D4D2F80C
:102FC0004031C3B100251C4CC4F84051D4F8403105
:102FD000FFF7D6FEEFF31182202383F31288BFF3AD
:102FE0006F8F184BD3E90267B042B94106D282F322
:102FF0001188BFF36F8F03B0BDE8F0834FF0FF3847
:10300000D3E900104FF0FF391D60C3E902894FF486
:103010008033C4F84833C4F84051D4F8403182F3C7
:103020001188BFF36F8F0029E5D0009032463B46F0
:1030300028468847DFE700BF005001503C0E0020C3
:10304000340E0020A800002030B5431C124C85B07F
:1030500005D08442A8BF0446012CB8BF0124FFF765
:103060008FFE0E4B0C4DD3E90013401AB0F5000F44
:103070000FD22218AA4228BF2A4600205218084917
:10308000CDE90100009143F10003FFF79BFE05B07D
:1030900030BD2A46F1E700BFFFFF7F00B8000020E7
:1030A000ED2C0000012310B5074C15206360FFF7DD
:1030B0008BF84FF40012054BC4F80833C4F84833BA
:1030C000034BC3F8802110BD0050015003000F00D6
:1030D00000E100E040EA0103C3F30E0330B58BB911
:1030E00040F21515094CC90BC0F3C730994201D104
:1030F000002030BDC218D2B202F5C07244F822508E
:103100000133F3E76FF01500F3E700BF0030005024
:1031100030B5816885B0103921F00704054603F009
:1031200055F810220146684603F0EAF81022684676
:10313000064903F0DAF810236A462146284603F0D0
:1031400014F8003818BF012005B030BD2E72000001
:1031500030B50D46816887B0102302AA10390446A5
:1031600002F0EEFF002802DA012007B030BD102285
:10317000204602A903F0E7FA00283AD110221E499E
:1031800002A803F0A2F800280CBF012302232B7031
:10319000204603F0C4FA012301460DF10702204640
:1031A00002F0CEFF0028DFDB9DF80730204603F059
:1031B0000F021B096A702B7101220DF1070103F048
:1031C000C2FA10B96B78042B03D901236B7000236A
:1031D0002B71A2682046183A22F00702083AA91C6F
:1031E00003F0C4FA0028BFD12046E91C03F017FB06
:1031F000BBE70323CBE700BF2E720000F0B5354FCD
:1032000085B046000546694657F8260003F00DFBD9
:10321000044610B1FF2005B0F0BD013657F8260076
:1032200002A903F002FB012837D12A4649212A4886
:1032300002F06BFF294B8DF80C40029300229DF8A1
:1032400000609DF80870264C3146207803F06DFA36
:1032500050B33946607803F068FA28B3A378042B9A
:1032600003D09DF8031099421ED1E378042B03D0BC
:103270009DF80B10994217D12379042B10D1627954
:10328000022A1DD1174B18482A46492102F03DFF5A
:103290006079831E022BBED9BCE70028CED0B9E7E7
:1032A0009DF802109942EAD00132032A04F1060483
:1032B000CAD10E482A46492102F027FF0120AAE779
:1032C000032A05D00A4B0B49042A08BF0B46DAE74C
:1032D000094BD8E77C700000C878000003010303A5
:1032E0005D790000AA7800001379000037790000AA
:1032F000AF780000C1780000A578000008B5EFF3B2
:103300001083012B0C4A07D1126ABFF34F8F511C57
:103310004A424A41104608BD03F0B4FA00B172B601
:10332000126ABFF34F8F531C5A425A4103F0AAFA54
:103330000028EFD062B6EDE70080FF0008B5EFF39C
:103340001083012B0B4A06D1D269BFF34F8F02F0D5
:103350000102104608BD03F095FA00B172B6D269B9
:10336000BFF34F8F02F0010203F08CFA0028F0D077
:1033700062B6EEE70080FF0010B503F083FA30B1CB
:103380004FF050230022C3F81421C3F8182103F092
:1033900088FA28B10122644BC3F8382AC3F878258B
:1033A0004FF47F02D2F83031D2F83421BFF34F8F7F
:1033B000C3F30B03092B05D1012A1EBF01225A4B6F
:1033C000C3F8782503F06DFA18B10E22574BC3F8F5
:1033D000E42E03F057FA30B10022534BC3F80C2708
:1033E0000122C3F810270022D30003F57F03D3F88E
:1033F0000013BFF34F8F013108D0D3F8001301320F
:10340000D3F80433B2F5807F0B60EDD1EFF3108475
:10341000FFF794FF00284DD0BFF34F8F444BD3F8F4
:103420000024012AFBD1C3F80425D3F80024012A83
:10343000FBD1012C03D003F025FA00B172B6FFF7DF
:103440007DFF58B13B4AD36923F00103D361BFF339
:103450004F8F374AD2F80034012BFBD1FFF74EFFD4
:1034600068B1344A136A23F0FF0343F02003136268
:10347000BFF34F8F2E4AD2F80034012BFBD1012C21
:1034800003D003F0FFF900B162B60022284BC3F865
:103490000425D3F80024012AFBD1BFF34F8F26491E
:1034A000264BCA6802F4E0621343CB60BFF34F8F30
:1034B00000BFFDE7FFF722FF0028ADD11E4AD2F87A
:1034C0008C3043F44063C2F88C304FF47F03D3F860
:1034D0003021D3F83431BFF34F8FC2F30B02092AE6
:1034E00016D1013B022B02D8154AD35C83B1114897
:1034F000144903680E4A8B420CBF5A230023C2F8BA
:10350000103EC36A8B420CBF5A230023C2F8003E10
:10351000094AD2F8883043F47003C2F88830BFF308
:103520004F8FBFF36F8F10BD0040005000A00350BD
:10353000009003500080FF0000ED00E00400FA0559
:103540006F790000FA50FA5030B50468ACB1B4FAA3
:1035500084F30122C3F11F03DBB29A4024EA020282
:10356000D0E8EF5FA54204D1C0E8EC2FBCF1000F1A
:10357000F6D1EAD102480B7030BD0248FCE700BF2B
:103580000000AD0B0200AD0B10B50368CB40DB07AC
:1035900010D401238B40026843EA0201D0E8EF4FC8
:1035A000944204D1C0E8EC1FBCF1000FF6D1F2D177
:1035B000014810BD0148FCE70000AD0B0400AD0B55
:1035C000014BC3F8040570470070015001460148E3
:1035D00000F0B6B81C000020044B1A7922B9012271
:1035E00018601A710248704702487047400E002068
:1035F0000000AD0B0C00AD0B08B5084B1B6833B1D8
:103600000520FEF7F5FD10B90520FEF7CFFD4FF0C0
:1036100050230122C3F8182508BD00BF400E00202A
:1036200010B510B1012847D010BD4FF05023D3F88A
:103630001814D3F81824C90322D502F00303022B6F
:1036400005D0012B02D0002003F047F901234FF0F1
:1036500050220220C2F8183508224FF4827300214C
:1036600003F1502319601C68012402F150221460F8
:10367000164A126822B34FF05023C3F80403D3E76D
:10368000D3F81424D207E1D5D3F81C2402F00302A6
:10369000013A012AD7D80D4A12681AB10222C3F89A
:1036A0000423C1E7D3F80421002AFBD00022C3F889
:1036B0000421D3F80431B7E700224FF48073CEE73A
:1036C0001A68002AFCD019601B68ADE7400E002084
:1036D000F8B54FF0502301250026D3F80443174FC7
:1036E00004B9F8BDB4FA84F0C0F11F00830003F5FB
:1036F00080739BB203F1502305FA00F21968D2B22D
:1037000024EA02040029EBD01E601B684FF050230E
:10371000022AC3F808230DD1D3F81814D3F81814CB
:1037200001F00301012905D1C3F81825C3F80423CA
:103730009960D5E73B68C0B29847D1E7400E0020BA
:103740000079024B03EB0010FFF7FEBE24000020BF
:10375000036803F01F025B090260024818BF0020E3
:10376000704700BF0025845070B5C3B20C4C0833BD
:1037700034F813300546DA050E4607D5C3F3432364
:1037800004EBC302526854F833309847A3682BB156
:1037900031462846E268BDE87040184770BD00BF5A
:1037A000480E0020024611F0010004D003490B6AC4
:1037B00013600B6203B90020704700BF00258450DE
:1037C00010B4134AC0B2083032F81030D9051CD5F5
:1037D000C3F3432123F4F85322F81030002002F100
:1037E0000E0434F8023F13F4807F03D0C3F3432365
:1037F00099420AD001302028F3D1002342F8313019
:1038000004485DF8044BFFF7BFBE5DF8044B7047FA
:10381000480E0020A00E0020F0B50446002001252F
:10382000064601F1A05101F55151104A89008A4222
:103830000BD10F4BD3F87C2132B10022C3F87C218D
:10384000D3F87C3140F00040F0BD02F13043A3F5E5
:1038500051439B0805FA03F31C4204D0176817B1C3
:103860001660176818430432E1E700BF00D100502A
:1038700000D00050CBB2024608460D49083331F85B
:103880001330990611D599070FD4012110685B0BED
:103890009940C0F80813126802EB8303D3F810258F
:1038A00022F00302C3F810257047002103F0B7B8D7
:1038B000480E0020F7B5194ECDB2083536F8153050
:1038C0000746DB070C4626D5FFF7D4FF36F8153040
:1038D0009A0608D55A0B3B6803EB82030022C3F813
:1038E0001025C3F810252046FFF76AFF002301A822
:1038F00026F815300194FFF72BFF019B00EB8300A6
:10390000D0F80022064B134043F00203C0F8003207
:10391000044803B0F0BD0448FBE700BF480E002098
:10392000F0F8FCFF0000AD0B0400AD0B2DE9FF41EA
:10393000136807460C461646FBB1DFF84881CDB246
:10394000083538F8152002F02202222A22D000225F
:103950002046CDE900228DF80E208DF80F200DF1C4
:103960000E010DF10F0203F011F838F8153023F0B5
:10397000020343F0010328F81530736863B393F82A
:1039800000C058683F4AE3B2083332F813108D077D
:1039900002D5C8B13C4822E021F02001C904C90C7D
:1039A00022F8131080B1BCF1030FF3D870683D68A2
:1039B000406890F800E005EB8E05BCF1000F11D1D6
:1039C000C5F810C5C5F810C532F8131021F01C0158
:1039D00041EA8C0122F81310B3684BBB2B4804B0AA
:1039E000BDE8F081D5F8108541EA4E3128F0030892
:1039F000C5F810853D6841F0200105EB8E05D5F82E
:103A0000100522F8131020F4473020F44070C5F858
:103A100010052002D5F8107500F4F85040EA0C406B
:103A20003843C5F8100502EB4E00A0F85C40CBE728
:103A30002046D3E90067FFF7C3FE002ECED0114D1C
:103A4000D5E90023964203D19F4201D1002209E02B
:103A50000F480DF10F01FFF777FD0C4B9842BED1D7
:103A60009DF80F20E4B205EBC20308345F6035F81F
:103A7000143045F8326043EA422343F4807325F85A
:103A80001430ABE7480E00200400AD0B0000AD0B76
:103A9000A00E00202DE9FF4107460C461E4612B33A
:103AA000DFF8D480CDB2083538F81530980701D446
:103AB000990621D413F01C0F02D05378012B1BD090
:103AC00001238DF80F3000232046CDE900230DF1AE
:103AD0000F01931C013202F059FF38F8153043F002
:103AE000030328F81530002E44D0234DE1B20831ED
:103AF00035F81120930703D4204804B0BDE8F081C5
:103B0000002096F800E03B6822F02002D20403EB8C
:103B10008E03D20CC3F8100525F81120C3F8100548
:103B200096F801C04FEA8E08BCF1000F22D0386829
:103B3000B6784044D0F810354FEA0C4C23F4981373
:103B400023F4F853C0F81035230203F4F8530CF4AF
:103B5000403C3605D0F8107543EA0C0306F4801695
:103B6000334342EA4E323B4342F02002C0F8103564
:103B700025F811200248C0E7480E00200400AD0BD4
:103B80000000AD0B014BC3E902127047480E002044
:103B9000054BC9B2083133F81130990643BF5B0BAE
:103BA0000248137002487047480E00200000AD0B19
:103BB0000400AD0B70B50E4C064694F86C50A5B9D8
:103BC0004022294604F1100002F09AFB3068C0F848
:103BD0007C51D0F87C3140F30730FEF7E7FA01233F
:103BE000044884F86C30A36570BD0348FCE700BF4F
:103BF000480E00200000AD0B0C00AD0B034B93F8FA
:103C00006C00003818BF0120704700BF480E00202C
:103C10000079024B03EB8000FFF7B6BC34000020B4
:103C20000079024B03EB8000FFF78EBC34000020CC
:103C300073B5CBB20C462149083331F81330016813
:103C40009D0619D513F0020616D15B0B9C0004F5F6
:103C500080754E51495901682144D1F8104544F00E
:103C60000104C1F810452AB10122016802FA03F3E8
:103C7000C1F8043302B070BDD1F80423C3F382034A
:103C8000002AA4BF4FF00042C1F80423042B11D036
:103C9000052B11D001A80194FFF75AFD019A036981
:103CA000D34003F00103991C204602B0BDE87040E8
:103CB00002F0B5BE0321F7E70221F5E7480E002028
:103CC0002DE9F3474F4B0821D3F80403C0B240F06D
:103CD0000040FFF7A1FD051E16DA0023012168460A
:103CE00000930127FFF75EFDDFF81C81009999B969
:103CF0004FF00040FFF790FD01216846FFF752FDAD
:103D00000028F3D125F0004501243E4E3E4F002D02
:103D100063D102B0BDE8F08791FAA1F4B4FA84F45B
:103D2000E00804F1080338F8139004F007021DF8C6
:103D3000003007FA02F223EA02030DF8003001A86E
:103D40000194FFF705FD019B4FEA9901803350F87C
:103D50002360C9F3820A4B07D146C6F3014621D539
:103D600020465146FFF700FD01A80194FFF7F0FC43
:103D7000019BF6B2803350F82330C3F301439E42D7
:103D800007D10021204602F04AFE3146204602F0CB
:103D900046FE01A80194FFF7DBFC019B07FA03F341
:103DA0000362A3E7022E0CD10321204602F037FE66
:103DB0000AF00503012BECD149462046FFF7D4FC5D
:103DC000E7E70221204602F02AFEBAF1030FF3D002
:103DD000032EDED1BAF1020FEDE795FAA5F3B3FA9F
:103DE00083F304FA03F225EA020503F5A27256F8FA
:103DF000221007EB4303B3F85C00C1F30141FFF766
:103E0000B3FC84E700D00050480E00200022034B92
:103E1000C3F88425C3F80425704700BF0090035001
:103E2000044AD2F80834DB07FBD50160BFF35F8F8B
:103E3000704700BF0090035008B5C0F30B0383B96F
:103E40000222094BC3F88425C3F804254FF0FF3242
:103E50000260D3F80024D207FBD5FFF7D7FF034851
:103E600008BD0348FCE700BF009003500000AD0B05
:103E70000A00AD0B012208B5054BC3F88425C3F831
:103E80000425FFF7CDFFBDE80840FFF7BFBF00BF27
:103E90000090035038B50A4B53F82040013053F8D6
:103EA0002050A54200D838BD606830B1037FDB07E1
:103EB00001D402F0FAFD0834F3E723689847FAE7E3
:103EC00084700000012208B5084B03201A70FFF728
:103ED000E1FFFDF7A9FF0420FFF7DCFFFCF79AFAEA
:103EE000034A137B23F00103137308BDD70F00208F
:103EF000C800002008B50348034A0021121A02F046
:103F0000EBFD08BDA8000020D80F002008B5002058
:103F1000FFF7C0FF144B83F308880025E023134C00
:103F200084F82230E57725766576A57684F82050EA
:103F3000636A43F4E023636284F82350FEF7BCF81D
:103F4000FEF7C8F94FF0FF33A362E36202F087FD8A
:103F50000120FFF79FFF0220FFF79CFF2B462A4618
:103F600029460348FEF79CF9D817002000ED00E031
:103F7000C53E0000074808B5074A0849121A02F072
:103F8000ADFDBDE808400648064A0749121A02F08E
:103F9000A5BD00BF00000020A8000020747900002B
:103FA000000000200000002074790000024B186817
:103FB000984208BF002070473800002030B570B12B
:103FC0000B4B5B6898420AD0036843B1D3E90421E4
:103FD000D0E90445121941EB0501C3E90421D0E9F8
:103FE000003213605A600023C0E9003330BD00BFC7
:103FF000380000202DE9F047EFF31185202383F3EB
:104000001288BFF36F8F244F4FF0000838604FF0D5
:104010000009FFF7CBFF214E3B68D6E9001E4FEAAF
:10402000E37C50B1D0E90442A3427CEB020A17DAE8
:10403000E41A62EB0C02C0E9044200245B184EEB68
:104040000C022046C6E900323C6002F04FFD2146DA
:10405000FEF7FAFF85F31188BFF36F8FBDE8F08795
:1040600061184EEBE473C0E90489C6E90013FFF759
:10407000A5FF85F31188BFF36F8F83689847EFF32F
:104080001185202383F31288BFF36F8F3B681B1BBE
:104090003B60FFF78BFFBFE7B80E00203801002020
:1040A00010B50A4C23681BB101232360002010BD0A
:1040B00000F046F80028F7D00138062803D8044B52
:1040C00053F8200010BD034810BD00BFBC0E0020F7
:1040D0009C700000FE8FFFFFBFF34F8F0549064B1A
:1040E000CA6802F4E0621343CB60BFF34F8F00BF96
:1040F000FDE700BF00ED00E00400FA0530B44FF02A
:10410000FE320025074B084C08494968C3F80024D3
:10411000C3F80424C3F80824C3F80C24C4F80055D9
:1041200030BC08470010845000008450400000203C
:10413000024BD0E90012C3E9001270474000002092
:1041400038B500F02FF820B1032400F063F82046C2
:1041500038BD00F031F898B900F0ACF898B90F4DBF
:10416000D5F828391B0EF02B08D1D5F8242A0C4B92
:104170009A420AD0072400F017F8E6E70624FAE787
:104180000424204638BD0024F5E7012000F092F811
:1041900004460028F7D1C5F80C0AD8E7001084506F
:1041A0000000E0200020704700207047014BC3F85A
:1041B000040A70470010845010B5114800F048F808
:1041C00000B110BD0F4800F043F80028F9D10E4CA3
:1041D000204600F03DF80028F3D10C4B0C481C6041
:1041E00000F036F801460028EBD100F02DF8044627
:1041F00008B1204610BD00F03FF82046FAE700BFA6
:1042000058000020540000205000002048000020EA
:104210004C00002008B5084800F024F8074800F0DA
:1042200021F8074800F01EF8064800F01BF8BDE82A
:10423000084000F00BB800BF5800002054000020D8
:10424000500000204C00002000207047704700BF45
:1042500008B5034B02681B6810689847002008BD2A
:104260007000002008B5034B02685B68106898472F
:10427000002008BD7000002070B5094C094D206970
:10428000AB68984718B1084B08485B68984700210D
:10429000074AEB6811602069BDE87040184700BF0D
:1042A0005C0000207000002040000020B87000007A
:1042B000C00E0020F8B51A4D1A4E0446B26828699F
:1042C0009047E8B9184F3B684CB1A3B1012B19D006
:1042D000013B3B602869F36898470020F8BD43B96B
:1042E0000121124AC2F800151149D1F81029002AFB
:1042F000FBD101333B60F368286998470020F8BD83
:104300000C48F8BD0A4AD2F81039002BFBD1074AF5
:104310006FF07E40C2F80035FFF748FF3B68D7E7F3
:104320005C00002070000020C00E002000008450BF
:1043300000108450E98FFFFF10B5044650B1636848
:1043400013F0685F05D0064A934202D000236260F2
:10435000236010BD034B04485B689847EFE700BF3C
:104360002C5F5CA940000020D8700000C8B14368F1
:104370000D4A934213D013F0685F0ED0012350E82A
:10438000002F194640E8001C9CF0000FF7D1012ACD
:10439000F5D0BFF35F8F0020704704487047044892
:1043A00070476FF4E04070472C5F5CA9E98FFFFF16
:1043B000EA8FFFFF034680B1426809498A420AD06A
:1043C00012F0685F05D0BFF35F8F002210461A60BD
:1043D000704704487047044870476FF4E0407047E6
:1043E0002C5F5CA9E98FFFFFEA8FFFFF10B5044641
:1043F00020B10023034A2360626010BD0248FFF72A
:104400007DFEF6E73A00003A0071000030B1026824
:10441000034B04489A4208BF002070470248704787
:10442000DD55AABB8208F0007108F00038B50D46D2
:104430000446B0B1A0220021043002F087FB95B100
:104440000822294604F1640002F086FB082205F1E7
:10445000200104F1840002F07FFB0020034B236065
:1044600038BD0348FCE70348FAE700BFDD55AABBA7
:104470007108F0008308F0002DE9F74305460E4669
:1044800099461146FFF7C2FF0446002840F0848099
:10449000002E00F08580002900F08480B9F1200F03
:1044A00040F0828005F14404082205F1040820460A
:1044B00002F052FB05F1240708223146404602F083
:1044C0004BFB06F120010822384602F045FB02A909
:1044D00041F8049D4FF4807002F032FB002865D152
:1044E0004FF48073324A0121136093600823314AEC
:1044F00000F034FB0121052308462F4A00F02EFB73
:104500000823424601211C2000F028FB08233A46DC
:104510000121032000F022FB224608230121022072
:1045200000F01CFB0823254A01211A2000F016FB8D
:104530000523234A01211B2000F010FB0823214AF8
:104540000121142000F00AFB08231F4A0121152035
:1045500000F004FB082305F164020121162000F09D
:10456000FDFA082305F184020121172000F0F6FA74
:104570000823164A01210B2000F0F0FA00F04AFB54
:104580000446019800F0D8FA114B002C18BF1C46C5
:10459000A421284602F0DCFA204603B0BDE8F083EF
:1045A0000C4CF9E70C4CF7E70C4CF5E7084CEFE73F
:1045B0009010845064710000DC71000024710000D0
:1045C000C871000088710000A871000044710000EB
:1045D0008408F0007608F0008008F0008108F00000
:1045E000C2690C4B1A60826943F8042C426943F893
:1045F000082C026943F80C2CC26843F8102C82681E
:1046000043F8142C426843F8182C026843F81C2C19
:10461000704700BF5C1684500C4B1B68C3610C4B89
:104620001B6883610B4B1B6843610B4B1B68036169
:104630000A4B1B68C3600A4B1B688360094B1B68ED
:104640004360094B1B680360704700BF5C168450D1
:104650005816845054168450501684504C1684506A
:1046600048168450441684504016845030B1026875
:10467000034B04489A4208BF002070470248704725
:10468000DD55AABB0202F0000002F00038B5044676
:1046900068B1051D7021284602F05AFA28462022EA
:1046A000044902F051FA0020034B236038BD03484F
:1046B000FCE700BFF0710000DD55AABB0002F0006E
:1046C0002DE9F04385B015466F46274B04460E464C
:1046D0000FCB87E80F002DB94FF00009484605B011
:1046E000BDE8F0832046FFF7C1FF81460028F5D1E1
:1046F000231D0193636AA3BB236F8BB1C3F14008F1
:10470000A84528BFA84604F1300031461844424667
:1047100002F01AFA236F464443442367A5EB0805C9
:10472000226F402A06D104F13001384600F0B4FB74
:104730000023236705F03F0835F03F0505D03146DB
:104740002A46384600F0A8FB2E44B8F1000FC3D02B
:104750004246314604F1300002F0F6F9C4F87080A8
:10476000BCE7DFF80890B9E7C06E00000C02F0006B
:104770002DE9FF4104466F46134B0E460FCB87E8E9
:104780000F002046FFF772FF8046B0B9CEB1636AD2
:10479000251D01953BB90123226F636204F13001AD
:1047A000384600F079FB2B46043E243453F8042BA2
:1047B00012BAA34246F8042FF8D1404604B0BDE82F
:1047C000F081DFF80880F8E7C06E00000502F00015
:1047D000084B1B681B0EF02B08D1074B1A68074BC0
:1047E0009A4205D10020064B18607047052070479B
:1047F0000620704728198450241A84500000E020B5
:104800000C1A8450002230B5134640F6FC7549005E
:10481000023802F1A15404F5823490424FEA840434
:1048200002F10102CABF236025605B181E2AF0D185
:10483000034A13600B445360024B034A1A6030BDB5
:10484000781084508410845020F80F001E4B30B52F
:104850001A4685B0196800910099CC07FAD500F185
:10486000A15000F582308000016813680193019B1C
:10487000D807FAD5154B164C186820231F3090FB2B
:10488000F3F0144D0138002810DA00230130400104
:1048900053B14FF00042A0F12001134204D101387E
:1048A00088424FEA5202F8D105B030BD1368039335
:1048B000039BDB07FAD5431823602B680293029B06
:1048C000002BE3D10138DEE7B4108450AC108450E3
:1048D000E4108450DC108450F0B51D6885B001F000
:1048E0001F040DB91F2C28D1174D2E462F68019794
:1048F000019FFF07FAD500F1A15000F5823080003A
:10490000006835680395039DED07FAD51F2C00EB71
:10491000611018BFC9430D4D18BF01F01F01286079
:104920000B480068029002981CBF00FA01F1116068
:104930004FF0000108BF1060196010684300C00FFD
:10494000136005B0F0BD00BFB4108450E410845073
:10495000DC1084500C4B890118603F3020F03F0080
:104960004030586099600948D9601961596199616E
:104970001C3382B0196002680192019AD207FAD5FD
:10498000196002B0704700BF90108450B41084507A
:1049900038B5A0F12003B3F5426F05462CD88F2817
:1049A00026D800F1470300F16604DB064FEA5414F1
:1049B00000D0013464013F34A409013411B1A14293
:1049C0001AD30C464FF48050E300B0FBF3F02028DC
:1049D00028BF202002B110600122084B21461A6036
:1049E000FFF710FF28462146FFF7B4FF002038BD2F
:1049F00000F11F046409DDE70148F8E71C18845042
:104A00002221F000464BF0B51D4689B01C68019488
:104A1000019CE407FAD5434B002413449B001A6819
:104A20000B181E2B88BFC0F11E011F320B18520934
:104A30005343B3F5806F84BF4FF48061B1FBF2F153
:104A4000274688BF091ADFF8E4E000F1A150DFF83B
:104A5000E0C000F58230A14233DC2B680493049B54
:104A6000DB07FAD5304B1B68296805910599CF07FC
:104A7000FAD52E4C2E49236000231E46934203F1A3
:104A8000010040D11946002620F0010228488A4240
:104A90003CD8296806910699CE07FAD525490968B8
:104AA000286807900798C007FAD5216000210C46B6
:104AB0001F488B422DD100201D499A422CD809B0A5
:104AC000F0BD2B680293029BDB07FAD503199B000C
:104AD0001B682E680396039EF607FAD5CEF80030C1
:104AE0000023934203F1010306D1164623F001038C
:104AF000B34204D80134AEE7CCF80070F1E7CCF84B
:104B000000700136F4E70E600346B7E70660013136
:104B1000BDE704600131CCE708600133CDE700BF99
:104B2000B4108450240421147C108450D410845078
:104B3000D81084507810845008B540B12028014620
:104B40004FF0070228BF20210020FFF75BFF002263
:104B5000014B1A6008BD00BF1C188450F0B5294DE8
:104B600085B02C462E680096009EF607FAD500F117
:104B7000A15000F5823080000568206801900198FE
:104B8000C707FAD52048214F056002EB8306B242E1
:104B900029D100275A1C1D4E22F001029A4227D823
:104BA00023680293029BDE07FAD5194B0B449B0046
:104BB0001B681F335B099A4213D221680391039942
:104BC000C907FAD500211544056008469B1A0F4A0B
:104BD0008B4210D800205A1C0C4922F001029A4244
:104BE0000CD805B0F0BD52F804CBC7F800C0CEE732
:104BF00037600133D2E710600131E9E70860013323
:104C0000EDE700BFB4108450D4108450D810845005
:104C1000240421142DE9F041814BA0B01D6898684F
:104C200020331E461A680192019AD707FAD57D4BA8
:104C30007D4A1A6032680292029AD407FAD57B4AFA
:104C40001A607B4A1446116803910399C907FAD583
:104C5000784A1168C1F3402137680497049FFF0721
:104C6000FAD5754F1F6027680597059FFF07FAD58E
:104C70001768002900F0CF80B90540F1CC80316879
:104C800006910699CF07FAD56C49196021680791FA
:104C90000799C907FAD51168C1F340213768089709
:104CA000089FFF07FAD5664F1F6027680997099F7D
:104CB000FF07FAD51268002900F0AF80910540F196
:104CC000AC8032680A920A9AD207FAD5564A1A601C
:104CD00032680B920B9AD707FAD55A4A1A60316894
:104CE0000C910C99CC07FAD55749196031680D9190
:104CF0000D99C907FAD55549196031680E910E9979
:104D0000CF07FAD55249196031680F910F99CC0736
:104D1000FAD550491960504B1E46196810911099E8
:104D2000C907FAD53F4C4D4B236033681193119B53
:104D3000DB07FAD54A4B236033681293129BDF07D7
:104D4000FAD5484B23603A4B98461968139113994A
:104D5000C907FAD5324F386033681493149BDB07C8
:104D6000FAD5226033681593159BD807FAD53E4BC8
:104D7000236033681693169BD907FAD53B4B236003
:104D800033681793179BDA07FAD5394B23603368DA
:104D90001893189BDB07FAD5364B236033681993B9
:104DA000199BD807FAD5344B236033681A931A9BA2
:104DB000D907FAD5314B236033681B931B9BDA0765
:104DC000FAD52F4B236000F01DFC08BBD8F800304B
:104DD0001C931C9BDB07F9D53D6033681D931D9B1D
:104DE000D907FAD5274B236033681E931E9BDA0739
:104DF000FAD5254B2360D8F800301F931F9BDB07A3
:104E0000F9D50C4B1B6813F4805F204B08BF184684
:104E100020B0BDE8F0811E48FAE71E48F8E700BF61
:104E2000901084508010845000100251C01F7229CD
:104E3000B410845088108450C0CF0129C01F0E299F
:104E4000C03F002940010249003184A800001649F2
:104E5000400108A180440888B0108450C044708884
:104E600080077A41C0077E4100006A4980061649E2
:104E700040006E4900020021008220214082202152
:104E80008082242140A161A100C861510308F10082
:104E90000108F1000208F100324B2DE9F74F80467E
:104EA0009246994644681A68002AFCD12E4B9B46CC
:104EB0001A68002AFCD14FF0FF30019100F094FCF9
:104EC000802000F097FC01230720284A284DA2F5F6
:104ED0009E722B60C2F83C011360636A254F264E18
:104EE0003B60A36A20463360D8F8003042F8043CA7
:104EF000D8F8083098470199D9F80030002BFBD139
:104F0000BAF1000F20D104221C4B1A60D9F80030EE
:104F1000002BFBD1DBF800A0BAF1000FFAD1D8F8D2
:104F20000C30204698473B6863623368A362144B99
:104F3000C3F800A0C3F844A1D9F80030002BFBD17E
:104F40002B6003B0BDE8F08F236A4020012B04BF23
:104F50000B4A13600B4B1960C3F804A000F050FC1F
:104F6000D4E700BF10198450201C845000198450CD
:104F700018188450CC178450D0178450C817845008
:104F800084168450281C8450544B10B5194698B090
:104F90001A680192019AD207FAD5514B514A1A6008
:104FA0000A680292029AD407FAD54F4A1A600A6830
:104FB0000392039AD007FAD54C4818600A68049205
:104FC000049AD207FAD54A4A1A600A680592059AE5
:104FD000D407FAD5474A1A600A680692069AD20799
:104FE000FAD5454A1A600A680792079AD407FAD593
:104FF000424A1A600A680892089AD207FAD5404ACB
:105000001A600A680992099AD407FAD53D4A1A60CB
:105010000A680A920A9AD207FAD53B4A1A600A68C5
:105020000B920B9AD407FAD5384A1A600A680C9288
:105030000C9AD207FAD5364A1A600A680D920D9A70
:10504000D407FAD5334A1A600A680E920E9AD2072C
:10505000FAD5314A1A600A680F920F9AD407FAD526
:105060002E4A1A600A681092109AD207FAD52C4A72
:105070001A601A4B19461C681194119CE407FAD562
:10508000174B1860086812901298C407FAD51A6076
:105090000A681392139AD007FAD5124A1A600A685E
:1050A0001492149AD207FAD51E4A1A600A68159209
:1050B000159AD407FAD51C4A1A600A681692169AED
:1050C000D007FAD5194A1A600A681792179AD207B8
:1050D000FAD5174A1A6018B010BD00BFB01084503E
:1050E00080108450009365210004319040966590B3
:1050F0000083612100C3302100C36490008161906E
:1051000000461021008111210041442100C32029C3
:105110000C4610C80086312100C3602140C12829F7
:10512000409665210013319040962529594614C8B0
:1051300040043249494B10B5194694B01A680092A0
:10514000009AD207FAD5464B464A1A600A6801927D
:10515000019AD407FAD5444A1A600A680292029A60
:10516000D007FAD5414818600A680392039AD2071B
:10517000FAD53F4A1A600A680492049AD407FAD50D
:105180003C4A1A600A680592059AD207FAD53A4A4B
:105190001A600A680692069AD407FAD5374A1A6046
:1051A0000A680792079AD207FAD5354A1A600A6840
:1051B0000892089AD407FAD5324A1A600A68099206
:1051C000099AD207FAD5304A1A600A680A920A9AEE
:1051D000D407FAD52D4A1A600A680B920B9AD207A7
:1051E000FAD52B4A1A600A680C920C9AD407FAD5A1
:1051F000284A1A600A680D920D9AD207FAD5264AF3
:105200001A600A680E920E9AD407FAD5234A1A60D9
:105210000A680F920F9AD207FAD5214A1A600F4BEB
:1052200019461C681094109CE407FAD50C4B1860C2
:10523000086811901198C407FAD51A600A6812928A
:10524000129AD007FAD5174A1A600A681392139A6D
:10525000D207FAD5144A1A6014B010BDB0108450A9
:1052600080108450809065210004099040966590DC
:1052700080806121802008218020649000816190DD
:105280000046102100811121004144218020202965
:10529000024610C80086092180206021402128296B
:1052A0004096652140962529594614C8504B10B5A3
:1052B0001C4696B01A680192019AD207FAD54D4B56
:1052C0004D4A1A6022680292029AD207FAD54B4AD6
:1052D0001A604B4A42EA804022680392039AD2073E
:1052E000FAD5186022680492049AD007FAD5454A84
:1052F0001A60A2F5800242EA814122680592059A6D
:10530000D207FAD5196022680692069AD007FAD514
:105310003D4A1A6022680792079AD107FAD53B4A9C
:105320001A6022680892089AD207FAD5384A1A6099
:1053300022680992099AD007FAD5364A1A6022687B
:105340000A920A9AD107FAD5334A1A6022680B9258
:105350000B9AD207FAD5314A1A6022680C920C9A3D
:10536000D007FAD52E4A1A6022680D920D9AD107FD
:10537000FAD52C4A1A6022680E920E9AD207FAD5F4
:10538000294A1A6022680F920F9AD007FAD5274A45
:105390001A60216810911099C907FAD51A60144B48
:1053A0001A46196811911199C807FAD5114B20496D
:1053B0001960116812911299C907FAD51D4919602F
:1053C000116813911399CC07FAD50B49196011682C
:1053D00014911499C807FAD51749196011681591E5
:1053E0001599C907FAD5154A1A6016B010BD00BF45
:1053F000B0108450801084504004419000862929C8
:10540000D81001C84014419040142129401465214E
:105410000034409000310C90C0400C90C0302029E6
:1054200040960D9000416090031645C800861121FA
:1054300000416021594644C84014459040142D90C5
:10544000264870B5054688B004680094009CE607BD
:10545000FAD5234C23480460234C44EA83432C6848
:105460000194019CE407FAD50360930143EA824268
:1054700042F0104444F4C0442B680293029BDE07C0
:10548000FAD504602B680393039BDB07FAD5174B0F
:1054900003608B0143EA814141F0104343F4C04370
:1054A0002E680496049EF607FAD503602B680593D0
:1054B000059BDE07FAD5046041F058412B6806933E
:1054C000069BDC07FAD5016042F058422B6807932F
:1054D000079BDB07FAD5026008B070BDB01084509E
:1054E000C02102298010845080710098806118903A
:1054F000354B8EB019461A680092009AD207FAD539
:10550000324B334A1A600A680192019AD007FAD5E1
:10551000304A1A600A680292029AD207FAD52E4AD5
:105520001A600A680392039AD007FAD52B4A1A60C8
:105530000A680492049AD207FAD5294A1A600A68BE
:105540000592059AD007FAD5264A1A600A6806928B
:10555000069AD207FAD5244A1A600A680792079A6F
:10556000D007FAD5214A1A600A680892089AD20729
:10557000FAD51F4A1A600A680992099AD007FAD523
:105580001C4A1A600A680A920A9AD207FAD51A4A7D
:105590001A6008680B900B98C007FAD51A600A6861
:1055A0000C920C9AD007FAD5144A1A600A680D9228
:1055B0000D9AD207FAD5124A0E211A6000200D2347
:1055C0000F220EB0FFF73CBFB01084508010845003
:1055D00080430129406339218070012980205421B2
:1055E00000D13490C0403490C0302029C0530D9079
:1055F00000413890832308C880E3102100413821FE
:10560000CF4308C801232DE9F04192B0CDE903331F
:10561000624B1D461A680592059AD207FAD5604B6F
:10562000604C2360604B19461A680692069AD707A9
:10563000FAD55E4B1A68D60400F1A8802A68079252
:10564000079AD007FAD55A4A22600A680892089A3F
:10565000D207FAD51E68C6F30036002E40F09880B7
:105660001220FFF7F3F807461320FFF7EFF8874201
:105670008CBF12201320FFF7E9F8471EFFF738FF11
:1056800003AB01AA39461220FFF726F904AB804686
:1056900002AA39461320FFF71FF900EB4800022841
:1056A00032D003283ED0012874D12B680993099B7E
:1056B000DB07FAD53F4B23602B680A930A9BD80778
:1056C000FAD53D4B23602B680F930F9BD907FAD572
:1056D0003A4B23602B681093109BDA07FAD5384BAE
:1056E00023602B681193119BDB07FAD5354B2360A0
:1056F000013F25D51023192218210020FFF7A0FE15
:10570000304612B0BDE8F0812B680B930B9BD90794
:10571000FAD52D4B23602B680C930C9BDA07FAD536
:105720002A4BCFE72B680D930D9BDB07FAD5284B4F
:1057300023602B680E930E9BD807FAD5254BC1E743
:1057400003AB01AA39461220FFF7C6F804AB0446A2
:1057500002AA39461320FFF7BFF810EB440402D128
:10576000FFF712FCC4E7FFF7E5FC022C08D0032C7E
:1057700009D0012C10D117211620FFF797FDB7E7AC
:1057800015211420F9E70F210E20F6E7124EB7E796
:10579000124EB5E7124EB3E7124EB1E7B010845087
:1057A00000084A5180108450B410845088108450EE
:1057B00000084E5100065A4940065E490004424125
:1057C0000014424940042E490006524940065649F9
:1057D00000063A4940063E490608F1000708F10074
:1057E0000408F1000508F100014B1860704700BF84
:1057F000081A8450014B1860704700BF041A845087
:10580000034A13681842FCD0024A106018467047D9
:10581000001A8450081A845070470020704730B531
:1058200000290446154685B011DB83688B420ED9EA
:105830006368C068194401AA00F01CFE28B96268B8
:10584000019B9B1A2B60029B6B6005B030BD6FF013
:105850002100FAE770472DE9F7430E4617469946AF
:10586000044628B94FF0FF38404603B0BDE8F08346
:105870000029F7D0002AF5D0CB680D8938461D44A1
:10588000042329460DEB030200F05AFC8046002851
:10589000E8D146F60812BDF804107389914225D16B
:1058A000BDF806109942DDD1042338460DEB030202
:1058B000294400F045FC0028D4D146F60713BDF872
:1058C00004209A42CED1C4E900679DF82830A4F89C
:1058D0000890A3727389BDF806202B44E360738996
:1058E00013442B44043563612561BDE7002BE4D0EC
:1058F000B8E72DE9F3410E4617461D46044620B988
:105900004FF0FF3002B0BDE8F0810368002BF7D004
:105910004368002BF4D04FF6FF78D4E904239A4271
:1059200016D223685B8923B1E368934204BF043332
:1059300023610423216960680DEB030200F000FC81
:105940000028DDD1A37A2BB1D4E903329A4201D3E6
:105950000120D7E72389BDF80610434501F1040271
:1059600003D0BDF804C09C450BD115B1BDF804307F
:105970002B80236904333360398023691344236106
:10598000C0E7236913442361C7E748B103683BB10B
:1059900043682BB1C068884294BF00200120704743
:1059A0004FF0FF30704773B50C4606461146022390
:1059B000204601AA00F026FA0546E8B9019A1F2AF6
:1059C0000ED9A2F12001304620222368194400F0AC
:1059D0008CFC2368019A13442360284602B070BDF2
:1059E0000146C2F12002304600F08AFC019A21688B
:1059F000C2F120003044EAE76FF00205EDE74FF412
:105A0000C07358433030704773B50C460546164690
:105A100000F0D5FBA04203D9284600F0D0FB044695
:105A20004FF4C073A9686A46303903FB1411284645
:105A3000FFF7F5FE0028A4BF009B336002B070BDE5
:105A400010B5044600F0BBFB4FF4C072A368303BB6
:105A500002FB103010BD70B50D46044600F05FFE2D
:105A60002A46A0F1080104232046BDE8704000F05A
:105A700067BB13B50446019100F051FE0423A0F169
:105A800008010DEB0302204600F08CFE02B010BDB1
:105A900000F056B92C232DE9F34103FB0105EB6817
:105AA0002E89D5F820801E440423174631464046EF
:105AB0000DEB030200F044FB044620B10124204614
:105AC00002B0BDE8F08146F60813BDF804206D89E8
:105AD0009A421AD1BDF806309D4201D00324EEE768
